{
  "contractName": "Vote",
  "abi": [
    {
      "inputs": [],
      "stateMutability": "nonpayable",
      "type": "constructor"
    },
    {
      "inputs": [],
      "name": "administrator",
      "outputs": [
        {
          "internalType": "address",
          "name": "",
          "type": "address"
        }
      ],
      "stateMutability": "view",
      "type": "function",
      "constant": true
    },
    {
      "inputs": [],
      "name": "candidate_count",
      "outputs": [
        {
          "internalType": "uint256",
          "name": "",
          "type": "uint256"
        }
      ],
      "stateMutability": "view",
      "type": "function",
      "constant": true
    },
    {
      "inputs": [
        {
          "internalType": "uint256",
          "name": "",
          "type": "uint256"
        }
      ],
      "name": "candidates",
      "outputs": [
        {
          "internalType": "string",
          "name": "party_name",
          "type": "string"
        },
        {
          "internalType": "string",
          "name": "party_flag",
          "type": "string"
        },
        {
          "internalType": "string",
          "name": "candidate_name",
          "type": "string"
        },
        {
          "internalType": "uint256",
          "name": "adhaar_number",
          "type": "uint256"
        }
      ],
      "stateMutability": "view",
      "type": "function",
      "constant": true
    },
    {
      "inputs": [
        {
          "internalType": "address",
          "name": "",
          "type": "address"
        }
      ],
      "name": "poolAdmin",
      "outputs": [
        {
          "internalType": "uint256",
          "name": "",
          "type": "uint256"
        }
      ],
      "stateMutability": "view",
      "type": "function",
      "constant": true
    },
    {
      "inputs": [],
      "name": "status",
      "outputs": [
        {
          "internalType": "enum Vote.vote_status",
          "name": "",
          "type": "uint8"
        }
      ],
      "stateMutability": "view",
      "type": "function",
      "constant": true
    },
    {
      "inputs": [],
      "name": "vote_status_int",
      "outputs": [
        {
          "internalType": "uint256",
          "name": "",
          "type": "uint256"
        }
      ],
      "stateMutability": "view",
      "type": "function",
      "constant": true
    },
    {
      "inputs": [
        {
          "internalType": "uint256",
          "name": "",
          "type": "uint256"
        }
      ],
      "name": "voter_status",
      "outputs": [
        {
          "internalType": "bool",
          "name": "",
          "type": "bool"
        }
      ],
      "stateMutability": "view",
      "type": "function",
      "constant": true
    },
    {
      "inputs": [
        {
          "internalType": "address",
          "name": "",
          "type": "address"
        }
      ],
      "name": "voters",
      "outputs": [
        {
          "internalType": "uint256",
          "name": "adhaar_number",
          "type": "uint256"
        },
        {
          "internalType": "string",
          "name": "name",
          "type": "string"
        },
        {
          "internalType": "uint256",
          "name": "age",
          "type": "uint256"
        },
        {
          "internalType": "uint256",
          "name": "voted_to",
          "type": "uint256"
        },
        {
          "internalType": "bool",
          "name": "is_voted",
          "type": "bool"
        },
        {
          "internalType": "bool",
          "name": "isPresent",
          "type": "bool"
        }
      ],
      "stateMutability": "view",
      "type": "function",
      "constant": true
    },
    {
      "inputs": [
        {
          "internalType": "uint256",
          "name": "",
          "type": "uint256"
        }
      ],
      "name": "votes_of_candidate",
      "outputs": [
        {
          "internalType": "uint256",
          "name": "",
          "type": "uint256"
        }
      ],
      "stateMutability": "view",
      "type": "function",
      "constant": true
    },
    {
      "inputs": [
        {
          "internalType": "uint256",
          "name": "adhaar",
          "type": "uint256"
        }
      ],
      "name": "is_present",
      "outputs": [
        {
          "internalType": "bool",
          "name": "",
          "type": "bool"
        }
      ],
      "stateMutability": "view",
      "type": "function",
      "constant": true
    },
    {
      "inputs": [
        {
          "internalType": "address",
          "name": "v",
          "type": "address"
        },
        {
          "internalType": "string",
          "name": "voter_name",
          "type": "string"
        },
        {
          "internalType": "uint256",
          "name": "age",
          "type": "uint256"
        },
        {
          "internalType": "uint256",
          "name": "adhaar_number",
          "type": "uint256"
        }
      ],
      "name": "addVoter",
      "outputs": [],
      "stateMutability": "nonpayable",
      "type": "function"
    },
    {
      "inputs": [
        {
          "internalType": "string",
          "name": "pname",
          "type": "string"
        },
        {
          "internalType": "string",
          "name": "pflag",
          "type": "string"
        },
        {
          "internalType": "string",
          "name": "c_name",
          "type": "string"
        },
        {
          "internalType": "uint256",
          "name": "adhaar",
          "type": "uint256"
        }
      ],
      "name": "add_candidate",
      "outputs": [],
      "stateMutability": "nonpayable",
      "type": "function"
    },
    {
      "inputs": [
        {
          "internalType": "address",
          "name": "v",
          "type": "address"
        }
      ],
      "name": "add_pool_admin",
      "outputs": [],
      "stateMutability": "nonpayable",
      "type": "function"
    },
    {
      "inputs": [],
      "name": "start_voting",
      "outputs": [],
      "stateMutability": "nonpayable",
      "type": "function"
    },
    {
      "inputs": [
        {
          "internalType": "uint256",
          "name": "candidate_num",
          "type": "uint256"
        }
      ],
      "name": "make_vote",
      "outputs": [],
      "stateMutability": "nonpayable",
      "type": "function"
    },
    {
      "inputs": [
        {
          "internalType": "uint256",
          "name": "candidate_num",
          "type": "uint256"
        }
      ],
      "name": "de_vote",
      "outputs": [],
      "stateMutability": "nonpayable",
      "type": "function"
    },
    {
      "inputs": [],
      "name": "vote_end",
      "outputs": [],
      "stateMutability": "nonpayable",
      "type": "function"
    },
    {
      "inputs": [
        {
          "internalType": "uint256",
          "name": "candidate_num",
          "type": "uint256"
        }
      ],
      "name": "show_vote",
      "outputs": [
        {
          "internalType": "uint256",
          "name": "",
          "type": "uint256"
        }
      ],
      "stateMutability": "view",
      "type": "function",
      "constant": true
    },
    {
      "inputs": [],
      "name": "show_winner",
      "outputs": [
        {
          "internalType": "uint256",
          "name": "",
          "type": "uint256"
        },
        {
          "internalType": "uint256",
          "name": "",
          "type": "uint256"
        },
        {
          "internalType": "string",
          "name": "",
          "type": "string"
        }
      ],
      "stateMutability": "view",
      "type": "function",
      "constant": true
    }
  ],
  "bytecode": "0x608060405234801561001057600080fd5b50336000806101000a81548173ffffffffffffffffffffffffffffffffffffffff021916908373ffffffffffffffffffffffffffffffffffffffff1602179055506000600560006101000a81548160ff0219169083600281111561007757610076610091565b5b0217905550600060068190555060006004819055506100c0565b7f4e487b7100000000000000000000000000000000000000000000000000000000600052602160045260246000fd5b61258580620000d06000396000f3fe608060405234801561001057600080fd5b50600436106101215760003560e01c8063a3ec138d116100ad578063e17361ab11610071578063e17361ab146102ec578063e30c96ee14610308578063eb1b6ab814610338578063f3a8b27014610368578063f53d0a8e1461039857610121565b8063a3ec138d14610241578063a582d6e814610276578063b24aa34e14610296578063d49c5431146102a0578063d66055d9146102d057610121565b8063522e06be116100f4578063522e06be146101b157806353047c72146101cd5780635e8a2932146101e9578063852d49e6146101f357806398a5b1c41461021157610121565b8063200d2ed2146101265780633477ee2e146101445780633a5b9a78146101775780634b1c4c2914610193575b600080fd5b61012e6103b6565b60405161013b919061189b565b60405180910390f35b61015e60048036038101906101599190611900565b6103c9565b60405161016e94939291906119d5565b60405180910390f35b610191600480360381019061018c9190611a8d565b610591565b005b61019b6106e9565b6040516101a89190611aba565b60405180910390f35b6101cb60048036038101906101c69190611c0a565b6106ef565b005b6101e760048036038101906101e29190611900565b610869565b005b6101f1610a5e565b005b6101fb610b61565b6040516102089190611aba565b60405180910390f35b61022b60048036038101906102269190611a8d565b610b67565b6040516102389190611aba565b60405180910390f35b61025b60048036038101906102569190611a8d565b610b7f565b60405161026d96959493929190611ce0565b60405180910390f35b61027e610c5d565b60405161028d93929190611d48565b60405180910390f35b61029e610eb0565b005b6102ba60048036038101906102b59190611900565b610fe6565b6040516102c79190611d86565b60405180910390f35b6102ea60048036038101906102e59190611900565b611006565b005b61030660048036038101906103019190611da1565b611295565b005b610322600480360381019061031d9190611900565b6114d2565b60405161032f9190611aba565b60405180910390f35b610352600480360381019061034d9190611900565b6115c7565b60405161035f9190611aba565b60405180910390f35b610382600480360381019061037d9190611900565b6115eb565b60405161038f9190611d86565b60405180910390f35b6103a061175d565b6040516103ad9190611e33565b60405180910390f35b600560009054906101000a900460ff1681565b60096020528060005260406000206000915090508060000180546103ec90611e7d565b80601f016020809104026020016040519081016040528092919081815260200182805461041890611e7d565b80156104655780601f1061043a57610100808354040283529160200191610465565b820191906000526020600020905b81548152906001019060200180831161044857829003601f168201915b50505050509080600101805461047a90611e7d565b80601f01602080910402602001604051908101604052809291908181526020018280546104a690611e7d565b80156104f35780601f106104c8576101008083540402835291602001916104f3565b820191906000526020600020905b8154815290600101906020018083116104d657829003601f168201915b50505050509080600201805461050890611e7d565b80601f016020809104026020016040519081016040528092919081815260200182805461053490611e7d565b80156105815780601f1061055657610100808354040283529160200191610581565b820191906000526020600020905b81548152906001019060200180831161056457829003601f168201915b5050505050908060030154905084565b3373ffffffffffffffffffffffffffffffffffffffff1660008054906101000a900473ffffffffffffffffffffffffffffffffffffffff1673ffffffffffffffffffffffffffffffffffffffff161461061f576040517f08c379a000000000000000000000000000000000000000000000000000000000815260040161061690611f21565b60405180910390fd5b6000600b60008373ffffffffffffffffffffffffffffffffffffffff1673ffffffffffffffffffffffffffffffffffffffff16815260200190815260200160002054146106a1576040517f08c379a000000000000000000000000000000000000000000000000000000000815260040161069890611fb3565b60405180910390fd5b6001600b60008373ffffffffffffffffffffffffffffffffffffffff1673ffffffffffffffffffffffffffffffffffffffff1681526020019081526020016000208190555050565b60045481565b3373ffffffffffffffffffffffffffffffffffffffff1660008054906101000a900473ffffffffffffffffffffffffffffffffffffffff1673ffffffffffffffffffffffffffffffffffffffff161461077d576040517f08c379a000000000000000000000000000000000000000000000000000000000815260040161077490611f21565b60405180910390fd5b8360096000600454815260200190815260200160002060000190805190602001906107a9929190611781565b508260096000600454815260200190815260200160002060010190805190602001906107d6929190611781565b50816009600060045481526020019081526020016000206002019080519060200190610803929190611781565b508060096000600454815260200190815260200160002060030181905550600a600090806001815401808255809150506001900390600052602060002001600090919091909150556004600081548092919061085e90612002565b919050555050505050565b60011515600760003373ffffffffffffffffffffffffffffffffffffffff1673ffffffffffffffffffffffffffffffffffffffff16815260200190815260200160002060040160009054906101000a900460ff161515146108ff576040517f08c379a00000000000000000000000000000000000000000000000000000000081526004016108f6906120bd565b60405180910390fd5b6001600281111561091357610912611824565b5b600560009054906101000a900460ff16600281111561093557610934611824565b5b14610975576040517f08c379a000000000000000000000000000000000000000000000000000000000815260040161096c9061214f565b60405180910390fd5b600354421061098357600080fd5b6000600760003373ffffffffffffffffffffffffffffffffffffffff1673ffffffffffffffffffffffffffffffffffffffff16815260200190815260200160002060040160006101000a81548160ff0219169083151502179055506103e8600760003373ffffffffffffffffffffffffffffffffffffffff1673ffffffffffffffffffffffffffffffffffffffff16815260200190815260200160002060030181905550600a8181548110610a3b57610a3a61216f565b5b906000526020600020016000815480929190610a569061219e565b919050555050565b3373ffffffffffffffffffffffffffffffffffffffff1660008054906101000a900473ffffffffffffffffffffffffffffffffffffffff1673ffffffffffffffffffffffffffffffffffffffff1614610aec576040517f08c379a0000000000000000000000000000000000000000000000000000000008152600401610ae390611f21565b60405180910390fd5b60016002811115610b0057610aff611824565b5b600560009054906101000a900460ff166002811115610b2257610b21611824565b5b14610b2c57600080fd5b6002600560006101000a81548160ff02191690836002811115610b5257610b51611824565b5b02179055506002600681905550565b60065481565b600b6020528060005260406000206000915090505481565b6007602052806000526040600020600091509050806000015490806001018054610ba890611e7d565b80601f0160208091040260200160405190810160405280929190818152602001828054610bd490611e7d565b8015610c215780601f10610bf657610100808354040283529160200191610c21565b820191906000526020600020905b815481529060010190602001808311610c0457829003601f168201915b5050505050908060020154908060030154908060040160009054906101000a900460ff16908060040160019054906101000a900460ff16905086565b60008060603373ffffffffffffffffffffffffffffffffffffffff1660008054906101000a900473ffffffffffffffffffffffffffffffffffffffff1673ffffffffffffffffffffffffffffffffffffffff1614610cf0576040517f08c379a0000000000000000000000000000000000000000000000000000000008152600401610ce790611f21565b60405180910390fd5b600280811115610d0357610d02611824565b5b600560009054906101000a900460ff166002811115610d2557610d24611824565b5b14610d2f57600080fd5b6000600a600081548110610d4657610d4561216f565b5b90600052602060002001549050600080600290505b6004548111610de65782600a600183610d7491906121c8565b81548110610d8557610d8461216f565b5b90600052602060002001541115610dd357600a600182610da591906121c8565b81548110610db657610db561216f565b5b90600052602060002001549250600181610dd091906121c8565b91505b8080610dde90612002565b915050610d5b565b506000805b600454811015610e3e57600a8181548110610e0957610e0861216f565b5b9060005260206000200154841415610e2b57600182610e2891906121fc565b91505b8080610e3690612002565b915050610deb565b5060006040518060400160405280600781526020017f737563636573730000000000000000000000000000000000000000000000000081525090506001821115610e9e5760405180606001604052806023815260200161252d6023913990505b82828296509650965050505050909192565b3373ffffffffffffffffffffffffffffffffffffffff1660008054906101000a900473ffffffffffffffffffffffffffffffffffffffff1673ffffffffffffffffffffffffffffffffffffffff1614610f3e576040517f08c379a0000000000000000000000000000000000000000000000000000000008152600401610f3590611f21565b60405180910390fd5b60006002811115610f5257610f51611824565b5b600560009054906101000a900460ff166002811115610f7457610f73611824565b5b14610f7e57600080fd5b426001819055506000600154610f9491906121fc565b60028190555062093a80600254610fab91906121fc565b6003819055506001600560006101000a81548160ff02191690836002811115610fd757610fd6611824565b5b02179055506001600681905550565b60086020528060005260406000206000915054906101000a900460ff1681565b600033905060011515600760008373ffffffffffffffffffffffffffffffffffffffff1673ffffffffffffffffffffffffffffffffffffffff16815260200190815260200160002060040160019054906101000a900460ff161515146110a1576040517f08c379a0000000000000000000000000000000000000000000000000000000008152600401611098906122c4565b60405180910390fd5b60001515600760008373ffffffffffffffffffffffffffffffffffffffff1673ffffffffffffffffffffffffffffffffffffffff16815260200190815260200160002060040160009054906101000a900460ff16151514611137576040517f08c379a000000000000000000000000000000000000000000000000000000000815260040161112e90612356565b60405180910390fd5b6001600281111561114b5761114a611824565b5b600560009054906101000a900460ff16600281111561116d5761116c611824565b5b146111ad576040517f08c379a00000000000000000000000000000000000000000000000000000000081526004016111a49061214f565b60405180910390fd5b60035442106111bb57600080fd5b6001600760003373ffffffffffffffffffffffffffffffffffffffff1673ffffffffffffffffffffffffffffffffffffffff16815260200190815260200160002060040160006101000a81548160ff02191690831515021790555081600760003373ffffffffffffffffffffffffffffffffffffffff1673ffffffffffffffffffffffffffffffffffffffff16815260200190815260200160002060030181905550600a82815481106112715761127061216f565b5b90600052602060002001600081548092919061128c90612002565b91905055505050565b6001600b60003373ffffffffffffffffffffffffffffffffffffffff1673ffffffffffffffffffffffffffffffffffffffff1681526020019081526020016000205414611317576040517f08c379a000000000000000000000000000000000000000000000000000000000815260040161130e906123e8565b60405180910390fd5b82600760008673ffffffffffffffffffffffffffffffffffffffff1673ffffffffffffffffffffffffffffffffffffffff168152602001908152602001600020600101908051906020019061136d929190611781565b5081600760008673ffffffffffffffffffffffffffffffffffffffff1673ffffffffffffffffffffffffffffffffffffffff1681526020019081526020016000206002018190555080600760008673ffffffffffffffffffffffffffffffffffffffff1673ffffffffffffffffffffffffffffffffffffffff168152602001908152602001600020600001819055506103e8600760008673ffffffffffffffffffffffffffffffffffffffff1673ffffffffffffffffffffffffffffffffffffffff168152602001908152602001600020600301819055506001600760008673ffffffffffffffffffffffffffffffffffffffff1673ffffffffffffffffffffffffffffffffffffffff16815260200190815260200160002060040160016101000a81548160ff02191690831515021790555060016008600083815260200190815260200160002060006101000a81548160ff02191690831515021790555050505050565b60003373ffffffffffffffffffffffffffffffffffffffff1660008054906101000a900473ffffffffffffffffffffffffffffffffffffffff1673ffffffffffffffffffffffffffffffffffffffff1614611562576040517f08c379a000000000000000000000000000000000000000000000000000000000815260040161155990611f21565b60405180910390fd5b60028081111561157557611574611824565b5b600560009054906101000a900460ff16600281111561159757611596611824565b5b146115a157600080fd5b600a82815481106115b5576115b461216f565b5b90600052602060002001549050919050565b600a81815481106115d757600080fd5b906000526020600020016000915090505481565b60003373ffffffffffffffffffffffffffffffffffffffff1660008054906101000a900473ffffffffffffffffffffffffffffffffffffffff1673ffffffffffffffffffffffffffffffffffffffff161461167b576040517f08c379a000000000000000000000000000000000000000000000000000000000815260040161167290611f21565b60405180910390fd5b6000600281111561168f5761168e611824565b5b600560009054906101000a900460ff1660028111156116b1576116b0611824565b5b146116f1576040517f08c379a00000000000000000000000000000000000000000000000000000000081526004016116e8906124a0565b60405180910390fd5b6002544210611735576040517f08c379a000000000000000000000000000000000000000000000000000000000815260040161172c9061250c565b60405180910390fd5b6008600083815260200190815260200160002060009054906101000a900460ff169050919050565b60008054906101000a900473ffffffffffffffffffffffffffffffffffffffff1681565b82805461178d90611e7d565b90600052602060002090601f0160209004810192826117af57600085556117f6565b82601f106117c857805160ff19168380011785556117f6565b828001600101855582156117f6579182015b828111156117f55782518255916020019190600101906117da565b5b5090506118039190611807565b5090565b5b80821115611820576000816000905550600101611808565b5090565b7f4e487b7100000000000000000000000000000000000000000000000000000000600052602160045260246000fd5b6003811061186457611863611824565b5b50565b600081905061187582611853565b919050565b600061188582611867565b9050919050565b6118958161187a565b82525050565b60006020820190506118b0600083018461188c565b92915050565b6000604051905090565b600080fd5b600080fd5b6000819050919050565b6118dd816118ca565b81146118e857600080fd5b50565b6000813590506118fa816118d4565b92915050565b600060208284031215611916576119156118c0565b5b6000611924848285016118eb565b91505092915050565b600081519050919050565b600082825260208201905092915050565b60005b8381101561196757808201518184015260208101905061194c565b83811115611976576000848401525b50505050565b6000601f19601f8301169050919050565b60006119988261192d565b6119a28185611938565b93506119b2818560208601611949565b6119bb8161197c565b840191505092915050565b6119cf816118ca565b82525050565b600060808201905081810360008301526119ef818761198d565b90508181036020830152611a03818661198d565b90508181036040830152611a17818561198d565b9050611a2660608301846119c6565b95945050505050565b600073ffffffffffffffffffffffffffffffffffffffff82169050919050565b6000611a5a82611a2f565b9050919050565b611a6a81611a4f565b8114611a7557600080fd5b50565b600081359050611a8781611a61565b92915050565b600060208284031215611aa357611aa26118c0565b5b6000611ab184828501611a78565b91505092915050565b6000602082019050611acf60008301846119c6565b92915050565b600080fd5b600080fd5b7f4e487b7100000000000000000000000000000000000000000000000000000000600052604160045260246000fd5b611b178261197c565b810181811067ffffffffffffffff82111715611b3657611b35611adf565b5b80604052505050565b6000611b496118b6565b9050611b558282611b0e565b919050565b600067ffffffffffffffff821115611b7557611b74611adf565b5b611b7e8261197c565b9050602081019050919050565b82818337600083830152505050565b6000611bad611ba884611b5a565b611b3f565b905082815260208101848484011115611bc957611bc8611ada565b5b611bd4848285611b8b565b509392505050565b600082601f830112611bf157611bf0611ad5565b5b8135611c01848260208601611b9a565b91505092915050565b60008060008060808587031215611c2457611c236118c0565b5b600085013567ffffffffffffffff811115611c4257611c416118c5565b5b611c4e87828801611bdc565b945050602085013567ffffffffffffffff811115611c6f57611c6e6118c5565b5b611c7b87828801611bdc565b935050604085013567ffffffffffffffff811115611c9c57611c9b6118c5565b5b611ca887828801611bdc565b9250506060611cb9878288016118eb565b91505092959194509250565b60008115159050919050565b611cda81611cc5565b82525050565b600060c082019050611cf560008301896119c6565b8181036020830152611d07818861198d565b9050611d1660408301876119c6565b611d2360608301866119c6565b611d306080830185611cd1565b611d3d60a0830184611cd1565b979650505050505050565b6000606082019050611d5d60008301866119c6565b611d6a60208301856119c6565b8181036040830152611d7c818461198d565b9050949350505050565b6000602082019050611d9b6000830184611cd1565b92915050565b60008060008060808587031215611dbb57611dba6118c0565b5b6000611dc987828801611a78565b945050602085013567ffffffffffffffff811115611dea57611de96118c5565b5b611df687828801611bdc565b9350506040611e07878288016118eb565b9250506060611e18878288016118eb565b91505092959194509250565b611e2d81611a4f565b82525050565b6000602082019050611e486000830184611e24565b92915050565b7f4e487b7100000000000000000000000000000000000000000000000000000000600052602260045260246000fd5b60006002820490506001821680611e9557607f821691505b60208210811415611ea957611ea8611e4e565b5b50919050565b7f5468697320616374696f6e20706572666f726d206279206f6e792061646d696e60008201527f6973747261746f72000000000000000000000000000000000000000000000000602082015250565b6000611f0b602883611938565b9150611f1682611eaf565b604082019050919050565b60006020820190508181036000830152611f3a81611efe565b9050919050565b7f506f6f6c2041646d696e20616c7265616479206578697374732077697468206760008201527f6976656e20616464726573730000000000000000000000000000000000000000602082015250565b6000611f9d602c83611938565b9150611fa882611f41565b604082019050919050565b60006020820190508181036000830152611fcc81611f90565b9050919050565b7f4e487b7100000000000000000000000000000000000000000000000000000000600052601160045260246000fd5b600061200d826118ca565b91507fffffffffffffffffffffffffffffffffffffffffffffffffffffffffffffffff8214156120405761203f611fd3565b5b600182019050919050565b7f74686973206973206f6e6c7920666f722074686f732077686f20616c7265616460008201527f7920766f74656400000000000000000000000000000000000000000000000000602082015250565b60006120a7602783611938565b91506120b28261204b565b604082019050919050565b600060208201905081810360008301526120d68161209a565b9050919050565b7f68692073746f7021212074686572652069732074696d6520746f20737461727460008201527f206120766f746521210000000000000000000000000000000000000000000000602082015250565b6000612139602983611938565b9150612144826120dd565b604082019050919050565b600060208201905081810360008301526121688161212c565b9050919050565b7f4e487b7100000000000000000000000000000000000000000000000000000000600052603260045260246000fd5b60006121a9826118ca565b915060008214156121bd576121bc611fd3565b5b600182039050919050565b60006121d3826118ca565b91506121de836118ca565b9250828210156121f1576121f0611fd3565b5b828203905092915050565b6000612207826118ca565b9150612212836118ca565b9250827fffffffffffffffffffffffffffffffffffffffffffffffffffffffffffffffff0382111561224757612246611fd3565b5b828201905092915050565b7f596f7520617265204e6f74207265676973746572656420666f7220566f74696e60008201527f6700000000000000000000000000000000000000000000000000000000000000602082015250565b60006122ae602183611938565b91506122b982612252565b604082019050919050565b600060208201905081810360008301526122dd816122a1565b9050919050565b7f686920796f752061726520616c7265616479206769766520766f746520746f2060008201527f7468697320706172747900000000000000000000000000000000000000000000602082015250565b6000612340602a83611938565b915061234b826122e4565b604082019050919050565b6000602082019050818103600083015261236f81612333565b9050919050565b7f5468697320616374696f6e20706572666f726d206279206f6e6c7920706f6f6c60008201527f2061646d696e6973747261746f72000000000000000000000000000000000000602082015250565b60006123d2602e83611938565b91506123dd82612376565b604082019050919050565b60006020820190508181036000830152612401816123c5565b9050919050565b7f62726f2069207468696e6b20766f74696e672069732072756e6e696e672c207960008201527f6568206b616d20746f207374617274207365207065686c65206b726e6120746860208201527f61206e6120626861750000000000000000000000000000000000000000000000604082015250565b600061248a604983611938565b915061249582612408565b606082019050919050565b600060208201905081810360008301526124b98161247d565b9050919050565b7f6f6820686f20796f7520617265206c6174652121210000000000000000000000600082015250565b60006124f6601583611938565b9150612501826124c0565b602082019050919050565b60006020820190508181036000830152612525816124e9565b905091905056fe77696e6e6572206e6f7420646563696465642079657420746865726520697320746965a26469706673582212201662eec8f3aa07b6a8b5e955b16627d898fdbfb164ccb59b037d651dfdf87e7964736f6c634300080b0033",
  "immutableReferences": {},
  "source": "//SPDX-License-Identifier: GPL-3.0\r\n//\r\npragma solidity >=0.4.22 <0.9.0;\r\ncontract Vote{\r\n    address public administrator;\r\n    uint private after_deploy;                       // in bw after deploy and start_timming  administrator can update voters as well as candidates information\r\n    uint private start_timming;                      //repesent timmimg when voting is started\r\n    uint private end_timming;                        //repesent when voting is ended\r\n    uint public candidate_count;\r\n    enum vote_status{before_start,vote_started,vote_end} //To check voting status\r\n    vote_status public status;\r\n    uint public vote_status_int;\r\n    struct  voter{\r\n        uint adhaar_number;\r\n        string name;\r\n        uint age;\r\n        uint voted_to;\r\n        bool is_voted;\r\n        bool isPresent;\r\n    }\r\n    mapping(address=>voter) public voters;//baad me dekhenge ki private krna hai ja nahi....and haan validate ka bhi sochna hai bhai...\r\n    mapping(uint=>bool) public voter_status;\r\n    struct candidate{\r\n        string party_name;\r\n        string party_flag;\r\n        string candidate_name;\r\n        uint adhaar_number;\r\n    }\r\n    mapping(uint=>candidate)public candidates;//where first int takes unique candidate number\r\n    uint[] public votes_of_candidate;// array to stor total votes of each candidate\r\n    mapping(address=>uint) public poolAdmin;\r\n    //Constructor and modifier define here\r\n    constructor(){\r\n        administrator=msg.sender;\r\n        status=vote_status.before_start;\r\n         //means we have 12 hours to update data to our database of voters and candidate\r\n         vote_status_int=0;\r\n         candidate_count=0;\r\n        }\r\n\r\n    modifier is_admnistrator{\r\n        require(administrator==msg.sender,\"This action perform by ony administrator\");\r\n        _;\r\n    }\r\n    modifier is_pool_admnistrator{\r\n        require(poolAdmin[msg.sender]==1,\"This action perform by only pool administrator\");\r\n        _;\r\n    }\r\n    modifier before_start{\r\n        require(status==vote_status.before_start,\"bro i think voting is running, yeh kam to start se pehle krna tha na bhau\");\r\n        require( block.timestamp<start_timming,\"oh ho you are late!!!\");\r\n        _;\r\n    }\r\n    modifier eligible_voter{\r\n         address t=msg.sender;\r\n         require(voters[t].isPresent==true,\"You are Not registered for Voting\");\r\n         require(voters[t].is_voted ==false,\"hi you are already give vote to this party\");\r\n        _;\r\n    }\r\n\r\n    //All function define here\r\n    function is_present(uint adhaar)  is_admnistrator before_start  view  public returns(bool){\r\n        return voter_status[adhaar];\r\n    }\r\n    function addVoter(address v,string memory voter_name,uint age,uint adhaar_number ) is_pool_admnistrator   public\r\n    {\r\n    // require(voter_status[adhaar_number]==false,\"voter already present in our server\");\r\n     voters[v].name=voter_name;\r\n     voters[v].age=age;\r\n     voters[v].adhaar_number=adhaar_number;\r\n     voters[v].voted_to=1000;\r\n     voters[v].isPresent=true;\r\n     voter_status[adhaar_number]=true;\r\n\r\n    }\r\n    function add_candidate(string memory pname,string memory pflag,string memory c_name,uint adhaar) is_admnistrator  public\r\n    {\r\n          candidates[candidate_count].party_name=pname;\r\n          candidates[candidate_count].party_flag=pflag;\r\n          candidates[candidate_count].candidate_name=c_name;\r\n          candidates[candidate_count].adhaar_number=adhaar;\r\n          votes_of_candidate.push(0);\r\n          candidate_count++;\r\n    }\r\n     function add_pool_admin(address v) is_admnistrator  public\r\n    {\r\n          require(poolAdmin[v]==0,\"Pool Admin already exists with given address\");\r\n          poolAdmin[v]=1;\r\n    }\r\n\r\n    function start_voting() public is_admnistrator  //vote started\r\n    {\r\n        require(status==vote_status.before_start);\r\n        after_deploy=block.timestamp;\r\n        start_timming=after_deploy+0;\r\n        end_timming=start_timming+604800;//means we have total 7 days after voting started to voting end{voting duration}\r\n        status=vote_status.vote_started;\r\n        vote_status_int=1;\r\n\r\n    }\r\n\r\n    function make_vote (uint candidate_num)public eligible_voter\r\n    {\r\n        require(status==vote_status.vote_started,\"hi stop!! there is time to start a vote!!\");\r\n        require( block.timestamp<end_timming);\r\n        voters[msg.sender].is_voted=true;\r\n        voters[msg.sender].voted_to=candidate_num;\r\n        votes_of_candidate[candidate_num]++;\r\n    }\r\n\r\n    function de_vote(uint candidate_num) public\r\n    {\r\n         require(voters[msg.sender].is_voted==true,\"this is only for thos who already voted\");\r\n         require(status==vote_status.vote_started,\"hi stop!! there is time to start a vote!!\");\r\n         require(block.timestamp<end_timming);\r\n         voters[msg.sender].is_voted=false;\r\n         voters[msg.sender].voted_to=1000;\r\n         votes_of_candidate[candidate_num]--;\r\n    }\r\n\r\n    function vote_end() public is_admnistrator  //vote ended\r\n    {\r\n        require(status==vote_status.vote_started);// && end_timming<=block.timestamp);\r\n        status=vote_status.vote_end; //change status to vote_end\r\n        vote_status_int=2;\r\n    }\r\n\r\n    function show_vote(uint candidate_num) public view is_admnistrator returns(uint) // function to check the candidate's vote\r\n    {\r\n         require(status==vote_status.vote_end);\r\n         return votes_of_candidate[candidate_num];\r\n\r\n    }\r\n\r\n    function show_winner() public view is_admnistrator returns(uint,uint,string memory)\r\n    {\r\n        require(status==vote_status.vote_end);\r\n        uint winner=votes_of_candidate[0];\r\n        uint winner_candidate=0;\r\n        for(uint i=2;i<=candidate_count;i++)\r\n        {\r\n            if(votes_of_candidate[i-1]>winner)\r\n            {\r\n                winner=votes_of_candidate[i-1];\r\n                winner_candidate=i-1;\r\n            }\r\n\r\n        }\r\n        uint winner_ct=0;\r\n        for(uint i=0;i<candidate_count;i++)\r\n        {\r\n            if(winner==votes_of_candidate[i])\r\n            winner_ct=winner_ct+1;\r\n\r\n        }\r\n        string memory tmp=\"success\";\r\n        if(winner_ct>1)\r\n        tmp=\"winner not decided yet there is tie\";\r\n        return (winner_candidate,winner_ct,tmp);\r\n    }\r\n}",
  "sourcePath": "C:\\Users\\Ritik Kumar\\Desktop\\evoting\\contracts\\vote.sol",
  "compiler": {
    "name": "solc",
    "version": "0.8.11+commit.d7f03943.Emscripten.clang"
  },
  "schemaVersion": "3.4.4",
  "updatedAt": "2022-11-24T13:52:56.265Z",
  "networkType": "ethereum",
  "devdoc": {
    "kind": "dev",
    "methods": {},
    "version": 1
  },
  "userdoc": {
    "kind": "user",
    "methods": {},
    "version": 1
  }
}