{
  "contractName": "Vote",
  "abi": [
    {
      "inputs": [],
      "stateMutability": "nonpayable",
      "type": "constructor"
    },
    {
      "inputs": [],
      "name": "administrator",
      "outputs": [
        {
          "internalType": "address",
          "name": "",
          "type": "address"
        }
      ],
      "stateMutability": "view",
      "type": "function"
    },
    {
      "inputs": [],
      "name": "status",
      "outputs": [
        {
          "internalType": "enum Vote.vote_status",
          "name": "",
          "type": "uint8"
        }
      ],
      "stateMutability": "view",
      "type": "function"
    },
    {
      "inputs": [
        {
          "internalType": "uint256",
          "name": "",
          "type": "uint256"
        }
      ],
      "name": "voter_status",
      "outputs": [
        {
          "internalType": "bool",
          "name": "",
          "type": "bool"
        }
      ],
      "stateMutability": "view",
      "type": "function"
    },
    {
      "inputs": [
        {
          "internalType": "address",
          "name": "",
          "type": "address"
        }
      ],
      "name": "voters",
      "outputs": [
        {
          "internalType": "uint256",
          "name": "adhaar_number",
          "type": "uint256"
        },
        {
          "internalType": "string",
          "name": "name",
          "type": "string"
        },
        {
          "internalType": "uint256",
          "name": "age",
          "type": "uint256"
        },
        {
          "internalType": "bool",
          "name": "is_voted",
          "type": "bool"
        }
      ],
      "stateMutability": "view",
      "type": "function"
    },
    {
      "inputs": [
        {
          "internalType": "uint256",
          "name": "adhaar",
          "type": "uint256"
        }
      ],
      "name": "is_present",
      "outputs": [
        {
          "internalType": "bool",
          "name": "",
          "type": "bool"
        }
      ],
      "stateMutability": "view",
      "type": "function"
    },
    {
      "inputs": [
        {
          "internalType": "address",
          "name": "v",
          "type": "address"
        },
        {
          "internalType": "string",
          "name": "voter_name",
          "type": "string"
        },
        {
          "internalType": "uint256",
          "name": "age",
          "type": "uint256"
        },
        {
          "internalType": "uint256",
          "name": "adhaar_number",
          "type": "uint256"
        }
      ],
      "name": "addVoter",
      "outputs": [],
      "stateMutability": "nonpayable",
      "type": "function"
    },
    {
      "inputs": [
        {
          "internalType": "uint256",
          "name": "cn",
          "type": "uint256"
        },
        {
          "internalType": "string",
          "name": "pname",
          "type": "string"
        },
        {
          "internalType": "string",
          "name": "pflag",
          "type": "string"
        },
        {
          "internalType": "string",
          "name": "c_name",
          "type": "string"
        },
        {
          "internalType": "uint256",
          "name": "adhaar",
          "type": "uint256"
        }
      ],
      "name": "add_candidate",
      "outputs": [],
      "stateMutability": "nonpayable",
      "type": "function"
    },
    {
      "inputs": [],
      "name": "start_voting",
      "outputs": [],
      "stateMutability": "nonpayable",
      "type": "function"
    },
    {
      "inputs": [
        {
          "internalType": "uint256",
          "name": "candidate_num",
          "type": "uint256"
        }
      ],
      "name": "make_vote",
      "outputs": [],
      "stateMutability": "nonpayable",
      "type": "function"
    },
    {
      "inputs": [
        {
          "internalType": "uint256",
          "name": "candidate_num",
          "type": "uint256"
        }
      ],
      "name": "de_vote",
      "outputs": [],
      "stateMutability": "nonpayable",
      "type": "function"
    },
    {
      "inputs": [],
      "name": "vote_end",
      "outputs": [],
      "stateMutability": "nonpayable",
      "type": "function"
    },
    {
      "inputs": [
        {
          "internalType": "uint256",
          "name": "candidate_num",
          "type": "uint256"
        }
      ],
      "name": "show_vote",
      "outputs": [
        {
          "internalType": "uint256",
          "name": "",
          "type": "uint256"
        }
      ],
      "stateMutability": "view",
      "type": "function"
    },
    {
      "inputs": [],
      "name": "show_winner",
      "outputs": [
        {
          "internalType": "uint256",
          "name": "",
          "type": "uint256"
        }
      ],
      "stateMutability": "view",
      "type": "function"
    }
  ],
  "bytecode": "0x60806040523480156200001157600080fd5b50336000806101000a81548173ffffffffffffffffffffffffffffffffffffffff021916908373ffffffffffffffffffffffffffffffffffffffff1602179055506000600560006101000a81548160ff021916908360028111156200007b576200007a620000be565b5b02179055504260018190555061a8c060015462000099919062000126565b60028190555062093a80600254620000b2919062000126565b60038190555062000183565b7f4e487b7100000000000000000000000000000000000000000000000000000000600052602160045260246000fd5b6000819050919050565b7f4e487b7100000000000000000000000000000000000000000000000000000000600052601160045260246000fd5b60006200013382620000ed565b91506200014083620000ed565b9250827fffffffffffffffffffffffffffffffffffffffffffffffffffffffffffffffff03821115620001785762000177620000f7565b5b828201905092915050565b611cbd80620001936000396000f3fe608060405234801561001057600080fd5b50600436106100cf5760003560e01c8063b24aa34e1161008c578063e17361ab11610066578063e17361ab146101db578063e30c96ee146101f7578063f3a8b27014610227578063f53d0a8e14610257576100cf565b8063b24aa34e14610185578063d49c54311461018f578063d66055d9146101bf576100cf565b8063200d2ed2146100d457806353047c72146100f25780635e8a29321461010e5780639c6c741014610118578063a3ec138d14610134578063a582d6e814610167575b600080fd5b6100dc610275565b6040516100e991906112a2565b60405180910390f35b61010c60048036038101906101079190611307565b610288565b005b610116610434565b005b610132600480360381019061012d919061147a565b61053d565b005b61014e600480360381019061014991906115a7565b61076a565b60405161015e9493929190611686565b60405180910390f35b61016f61082f565b60405161017c91906116d2565b60405180910390f35b61018d6109c3565b005b6101a960048036038101906101a49190611307565b610acc565b6040516101b691906116ed565b60405180910390f35b6101d960048036038101906101d49190611307565b610aec565b005b6101f560048036038101906101f09190611708565b610c9e565b005b610211600480360381019061020c9190611307565b610efd565b60405161021e91906116d2565b60405180910390f35b610241600480360381019061023c9190611307565b610ff2565b60405161024e91906116ed565b60405180910390f35b61025f611164565b60405161026c919061179a565b60405180910390f35b600560009054906101000a900460ff1681565b60011515600660003373ffffffffffffffffffffffffffffffffffffffff1673ffffffffffffffffffffffffffffffffffffffff16815260200190815260200160002060030160009054906101000a900460ff1615151461031e576040517f08c379a000000000000000000000000000000000000000000000000000000000815260040161031590611827565b60405180910390fd5b600160028111156103325761033161122b565b5b600560009054906101000a900460ff1660028111156103545761035361122b565b5b14610394576040517f08c379a000000000000000000000000000000000000000000000000000000000815260040161038b906118b9565b60405180910390fd5b60035442106103a257600080fd5b6000600660003373ffffffffffffffffffffffffffffffffffffffff1673ffffffffffffffffffffffffffffffffffffffff16815260200190815260200160002060030160006101000a81548160ff02191690831515021790555060098181548110610411576104106118d9565b5b90600052602060002001600081548092919061042c90611937565b919050555050565b3373ffffffffffffffffffffffffffffffffffffffff1660008054906101000a900473ffffffffffffffffffffffffffffffffffffffff1673ffffffffffffffffffffffffffffffffffffffff16146104c2576040517f08c379a00000000000000000000000000000000000000000000000000000000081526004016104b9906119d3565b60405180910390fd5b600160028111156104d6576104d561122b565b5b600560009054906101000a900460ff1660028111156104f8576104f761122b565b5b14801561050757504260035411155b61051057600080fd5b6002600560006101000a81548160ff021916908360028111156105365761053561122b565b5b0217905550565b3373ffffffffffffffffffffffffffffffffffffffff1660008054906101000a900473ffffffffffffffffffffffffffffffffffffffff1673ffffffffffffffffffffffffffffffffffffffff16146105cb576040517f08c379a00000000000000000000000000000000000000000000000000000000081526004016105c2906119d3565b60405180910390fd5b600060028111156105df576105de61122b565b5b600560009054906101000a900460ff1660028111156106015761060061122b565b5b14610641576040517f08c379a000000000000000000000000000000000000000000000000000000000815260040161063890611a8b565b60405180910390fd5b6002544210610685576040517f08c379a000000000000000000000000000000000000000000000000000000000815260040161067c90611af7565b60405180910390fd5b836008600087815260200190815260200160002060000190805190602001906106af929190611188565b50826008600087815260200190815260200160002060010190805190602001906106da929190611188565b5081600860008781526020019081526020016000206002019080519060200190610705929190611188565b508060086000878152602001908152602001600020600301819055506009600090806001815401808255809150506001900390600052602060002001600090919091909150556004600081548092919061075e90611b17565b91905055505050505050565b600660205280600052604060002060009150905080600001549080600101805461079390611b8f565b80601f01602080910402602001604051908101604052809291908181526020018280546107bf90611b8f565b801561080c5780601f106107e15761010080835404028352916020019161080c565b820191906000526020600020905b8154815290600101906020018083116107ef57829003601f168201915b5050505050908060020154908060030160009054906101000a900460ff16905084565b60003373ffffffffffffffffffffffffffffffffffffffff1660008054906101000a900473ffffffffffffffffffffffffffffffffffffffff1673ffffffffffffffffffffffffffffffffffffffff16146108bf576040517f08c379a00000000000000000000000000000000000000000000000000000000081526004016108b6906119d3565b60405180910390fd5b6002808111156108d2576108d161122b565b5b600560009054906101000a900460ff1660028111156108f4576108f361122b565b5b146108fe57600080fd5b60006009600081548110610915576109146118d9565b5b906000526020600020015490506000600190506000600290505b60045481116109ba578260096001836109489190611bc1565b81548110610959576109586118d9565b5b906000526020600020015411156109a75760096001826109799190611bc1565b8154811061098a576109896118d9565b5b906000526020600020015492506001816109a49190611bc1565b91505b80806109b290611b17565b91505061092f565b50809250505090565b3373ffffffffffffffffffffffffffffffffffffffff1660008054906101000a900473ffffffffffffffffffffffffffffffffffffffff1673ffffffffffffffffffffffffffffffffffffffff1614610a51576040517f08c379a0000000000000000000000000000000000000000000000000000000008152600401610a48906119d3565b60405180910390fd5b60006002811115610a6557610a6461122b565b5b600560009054906101000a900460ff166002811115610a8757610a8661122b565b5b14610a9157600080fd5b6002544211610a9f57600080fd5b6001600560006101000a81548160ff02191690836002811115610ac557610ac461122b565b5b0217905550565b60076020528060005260406000206000915054906101000a900460ff1681565b600033905060001515600660008373ffffffffffffffffffffffffffffffffffffffff1673ffffffffffffffffffffffffffffffffffffffff16815260200190815260200160002060030160009054906101000a900460ff16151514610b87576040517f08c379a0000000000000000000000000000000000000000000000000000000008152600401610b7e90611c67565b60405180910390fd5b60016002811115610b9b57610b9a61122b565b5b600560009054906101000a900460ff166002811115610bbd57610bbc61122b565b5b14610bfd576040517f08c379a0000000000000000000000000000000000000000000000000000000008152600401610bf4906118b9565b60405180910390fd5b6003544210610c0b57600080fd5b6001600660003373ffffffffffffffffffffffffffffffffffffffff1673ffffffffffffffffffffffffffffffffffffffff16815260200190815260200160002060030160006101000a81548160ff02191690831515021790555060098281548110610c7a57610c796118d9565b5b906000526020600020016000815480929190610c9590611b17565b91905055505050565b3373ffffffffffffffffffffffffffffffffffffffff1660008054906101000a900473ffffffffffffffffffffffffffffffffffffffff1673ffffffffffffffffffffffffffffffffffffffff1614610d2c576040517f08c379a0000000000000000000000000000000000000000000000000000000008152600401610d23906119d3565b60405180910390fd5b60006002811115610d4057610d3f61122b565b5b600560009054906101000a900460ff166002811115610d6257610d6161122b565b5b14610da2576040517f08c379a0000000000000000000000000000000000000000000000000000000008152600401610d9990611a8b565b60405180910390fd5b6002544210610de6576040517f08c379a0000000000000000000000000000000000000000000000000000000008152600401610ddd90611af7565b60405180910390fd5b82600660008673ffffffffffffffffffffffffffffffffffffffff1673ffffffffffffffffffffffffffffffffffffffff1681526020019081526020016000206001019080519060200190610e3c929190611188565b5081600660008673ffffffffffffffffffffffffffffffffffffffff1673ffffffffffffffffffffffffffffffffffffffff1681526020019081526020016000206002018190555080600660008673ffffffffffffffffffffffffffffffffffffffff1673ffffffffffffffffffffffffffffffffffffffff1681526020019081526020016000206000018190555060016007600083815260200190815260200160002060006101000a81548160ff02191690831515021790555050505050565b60003373ffffffffffffffffffffffffffffffffffffffff1660008054906101000a900473ffffffffffffffffffffffffffffffffffffffff1673ffffffffffffffffffffffffffffffffffffffff1614610f8d576040517f08c379a0000000000000000000000000000000000000000000000000000000008152600401610f84906119d3565b60405180910390fd5b600280811115610fa057610f9f61122b565b5b600560009054906101000a900460ff166002811115610fc257610fc161122b565b5b14610fcc57600080fd5b60098281548110610fe057610fdf6118d9565b5b90600052602060002001549050919050565b60003373ffffffffffffffffffffffffffffffffffffffff1660008054906101000a900473ffffffffffffffffffffffffffffffffffffffff1673ffffffffffffffffffffffffffffffffffffffff1614611082576040517f08c379a0000000000000000000000000000000000000000000000000000000008152600401611079906119d3565b60405180910390fd5b600060028111156110965761109561122b565b5b600560009054906101000a900460ff1660028111156110b8576110b761122b565b5b146110f8576040517f08c379a00000000000000000000000000000000000000000000000000000000081526004016110ef90611a8b565b60405180910390fd5b600254421061113c576040517f08c379a000000000000000000000000000000000000000000000000000000000815260040161113390611af7565b60405180910390fd5b6007600083815260200190815260200160002060009054906101000a900460ff169050919050565b60008054906101000a900473ffffffffffffffffffffffffffffffffffffffff1681565b82805461119490611b8f565b90600052602060002090601f0160209004810192826111b657600085556111fd565b82601f106111cf57805160ff19168380011785556111fd565b828001600101855582156111fd579182015b828111156111fc5782518255916020019190600101906111e1565b5b50905061120a919061120e565b5090565b5b8082111561122757600081600090555060010161120f565b5090565b7f4e487b7100000000000000000000000000000000000000000000000000000000600052602160045260246000fd5b6003811061126b5761126a61122b565b5b50565b600081905061127c8261125a565b919050565b600061128c8261126e565b9050919050565b61129c81611281565b82525050565b60006020820190506112b76000830184611293565b92915050565b6000604051905090565b600080fd5b600080fd5b6000819050919050565b6112e4816112d1565b81146112ef57600080fd5b50565b600081359050611301816112db565b92915050565b60006020828403121561131d5761131c6112c7565b5b600061132b848285016112f2565b91505092915050565b600080fd5b600080fd5b6000601f19601f8301169050919050565b7f4e487b7100000000000000000000000000000000000000000000000000000000600052604160045260246000fd5b6113878261133e565b810181811067ffffffffffffffff821117156113a6576113a561134f565b5b80604052505050565b60006113b96112bd565b90506113c5828261137e565b919050565b600067ffffffffffffffff8211156113e5576113e461134f565b5b6113ee8261133e565b9050602081019050919050565b82818337600083830152505050565b600061141d611418846113ca565b6113af565b90508281526020810184848401111561143957611438611339565b5b6114448482856113fb565b509392505050565b600082601f83011261146157611460611334565b5b813561147184826020860161140a565b91505092915050565b600080600080600060a08688031215611496576114956112c7565b5b60006114a4888289016112f2565b955050602086013567ffffffffffffffff8111156114c5576114c46112cc565b5b6114d18882890161144c565b945050604086013567ffffffffffffffff8111156114f2576114f16112cc565b5b6114fe8882890161144c565b935050606086013567ffffffffffffffff81111561151f5761151e6112cc565b5b61152b8882890161144c565b925050608061153c888289016112f2565b9150509295509295909350565b600073ffffffffffffffffffffffffffffffffffffffff82169050919050565b600061157482611549565b9050919050565b61158481611569565b811461158f57600080fd5b50565b6000813590506115a18161157b565b92915050565b6000602082840312156115bd576115bc6112c7565b5b60006115cb84828501611592565b91505092915050565b6115dd816112d1565b82525050565b600081519050919050565b600082825260208201905092915050565b60005b8381101561161d578082015181840152602081019050611602565b8381111561162c576000848401525b50505050565b600061163d826115e3565b61164781856115ee565b93506116578185602086016115ff565b6116608161133e565b840191505092915050565b60008115159050919050565b6116808161166b565b82525050565b600060808201905061169b60008301876115d4565b81810360208301526116ad8186611632565b90506116bc60408301856115d4565b6116c96060830184611677565b95945050505050565b60006020820190506116e760008301846115d4565b92915050565b60006020820190506117026000830184611677565b92915050565b60008060008060808587031215611722576117216112c7565b5b600061173087828801611592565b945050602085013567ffffffffffffffff811115611751576117506112cc565b5b61175d8782880161144c565b935050604061176e878288016112f2565b925050606061177f878288016112f2565b91505092959194509250565b61179481611569565b82525050565b60006020820190506117af600083018461178b565b92915050565b7f74686973206973206f6e6c7920666f722074686f732077686f20616c7265616460008201527f7920766f74656400000000000000000000000000000000000000000000000000602082015250565b60006118116027836115ee565b915061181c826117b5565b604082019050919050565b6000602082019050818103600083015261184081611804565b9050919050565b7f68692073746f7021212074686572652069732074696d6520746f20737461727460008201527f206120766f746521210000000000000000000000000000000000000000000000602082015250565b60006118a36029836115ee565b91506118ae82611847565b604082019050919050565b600060208201905081810360008301526118d281611896565b9050919050565b7f4e487b7100000000000000000000000000000000000000000000000000000000600052603260045260246000fd5b7f4e487b7100000000000000000000000000000000000000000000000000000000600052601160045260246000fd5b6000611942826112d1565b9150600082141561195657611955611908565b5b600182039050919050565b7f5468697320616374696f6e20706572666f726d206279206f6e792061646d696e60008201527f6973747261746f72000000000000000000000000000000000000000000000000602082015250565b60006119bd6028836115ee565b91506119c882611961565b604082019050919050565b600060208201905081810360008301526119ec816119b0565b9050919050565b7f62726f2069207468696e6b20766f74696e672069732072756e6e696e672c207960008201527f6568206b616d20746f207374617274207365207065686c65206b726e6120746860208201527f61206e6120626861750000000000000000000000000000000000000000000000604082015250565b6000611a756049836115ee565b9150611a80826119f3565b606082019050919050565b60006020820190508181036000830152611aa481611a68565b9050919050565b7f6f6820686f20796f7520617265206c6174652121210000000000000000000000600082015250565b6000611ae16015836115ee565b9150611aec82611aab565b602082019050919050565b60006020820190508181036000830152611b1081611ad4565b9050919050565b6000611b22826112d1565b91507fffffffffffffffffffffffffffffffffffffffffffffffffffffffffffffffff821415611b5557611b54611908565b5b600182019050919050565b7f4e487b7100000000000000000000000000000000000000000000000000000000600052602260045260246000fd5b60006002820490506001821680611ba757607f821691505b60208210811415611bbb57611bba611b60565b5b50919050565b6000611bcc826112d1565b9150611bd7836112d1565b925082821015611bea57611be9611908565b5b828203905092915050565b7f686920796f752061726520616c7265616479206769766520766f746520746f2060008201527f7468697320706172747900000000000000000000000000000000000000000000602082015250565b6000611c51602a836115ee565b9150611c5c82611bf5565b604082019050919050565b60006020820190508181036000830152611c8081611c44565b905091905056fea2646970667358221220b3147c4b73eaad3981faba49250cae66efc6234b697d4814972aa0d40da6d73f64736f6c634300080b0033",
  "immutableReferences": {},
  "source": "//SPDX-License-Identifier: GPL-3.0\r\n//Need changes\r\npragma solidity >=0.4.22 <0.9.0;\r\ncontract Vote{\r\n    address public administrator;\r\n    uint private after_deploy;                       // in bw after deploy and start_timming  administrator can update voters as well as candidates information\r\n    uint private start_timming;                      //repesent timmimg when voting is started\r\n    uint private end_timming;                        //repesent when voting is ended\r\n    uint candidate_count;\r\n    enum vote_status{before_start,vote_started,vote_end} //To check voting status\r\n    vote_status public status;\r\n\r\n    struct  voter{\r\n        uint adhaar_number;\r\n        string name;\r\n        uint age;\r\n        bool is_voted;\r\n    }\r\n    mapping(address=>voter) public voters;//baad me dekhenge ki private krna hai ja nahi....and haan validate ka bhi sochna hai bhai...\r\n    mapping(uint=>bool) public voter_status;\r\n    struct candidate{\r\n        string party_name;\r\n        string party_flag;\r\n        string candidate_name;\r\n        uint adhaar_number;\r\n    }\r\n    mapping(uint=>candidate) candidates;//where first int takes unique candidate number\r\n    uint[] private votes_of_candidate;// array to stor total votes of each candidate\r\n\r\n    //Constructor and modifier define here\r\n    constructor(){\r\n        administrator=msg.sender;\r\n        status=vote_status.before_start;\r\n        after_deploy=block.timestamp;\r\n        start_timming=after_deploy+43200;  //means we have 12 hours to update data to our database of voters and candidate\r\n        end_timming=start_timming+604800;//means we have total 7 days after voting started to voting end{voting duration}\r\n        }\r\n\r\n    modifier is_admnistrator{\r\n        require(administrator==msg.sender,\"This action perform by ony administrator\");\r\n        _;\r\n    }\r\n\r\n    modifier before_start{\r\n        require(status==vote_status.before_start,\"bro i think voting is running, yeh kam to start se pehle krna tha na bhau\");\r\n        require( block.timestamp<start_timming,\"oh ho you are late!!!\");\r\n        _;\r\n    }\r\n    modifier eligible_voter{\r\n         address t=msg.sender;\r\n         require(voters[t].is_voted ==false,\"hi you are already give vote to this party\");\r\n        _;\r\n    }\r\n\r\n    //All function define here\r\n    function is_present(uint adhaar)  is_admnistrator before_start  view  public returns(bool){\r\n        return voter_status[adhaar];\r\n    }\r\n    function addVoter(address v,string memory voter_name,uint age,uint adhaar_number ) is_admnistrator before_start  public\r\n    {\r\n    // require(voter_status[adhaar_number]==false,\"voter already present in our server\");\r\n     voters[v].name=voter_name;\r\n     voters[v].age=age;\r\n     voters[v].adhaar_number=adhaar_number;\r\n     voter_status[adhaar_number]=true;\r\n\r\n    }\r\n    function add_candidate(uint cn,string memory pname,string memory pflag,string memory c_name,uint adhaar) is_admnistrator before_start public\r\n    {\r\n          candidates[cn].party_name=pname;\r\n          candidates[cn].party_flag=pflag;\r\n          candidates[cn].candidate_name=c_name;\r\n          candidates[cn].adhaar_number=adhaar;\r\n          votes_of_candidate.push(0);\r\n          candidate_count++;\r\n    }\r\n\r\n    function start_voting() public is_admnistrator  //vote started\r\n    {\r\n        require(status==vote_status.before_start);\r\n        require(block.timestamp>start_timming);\r\n        status=vote_status.vote_started;\r\n\r\n    }\r\n\r\n    function make_vote (uint candidate_num)public eligible_voter\r\n    {\r\n        require(status==vote_status.vote_started,\"hi stop!! there is time to start a vote!!\");\r\n        require( block.timestamp<end_timming);\r\n        voters[msg.sender].is_voted=true;\r\n        votes_of_candidate[candidate_num]++;\r\n    }\r\n\r\n    function de_vote(uint candidate_num) public\r\n    {\r\n         require(voters[msg.sender].is_voted==true,\"this is only for thos who already voted\");\r\n         require(status==vote_status.vote_started,\"hi stop!! there is time to start a vote!!\");\r\n         require(block.timestamp<end_timming);\r\n         voters[msg.sender].is_voted=false;\r\n          votes_of_candidate[candidate_num]--;\r\n    }\r\n\r\n    function vote_end() public is_admnistrator  //vote ended\r\n    {\r\n        require(status==vote_status.vote_started && end_timming<=block.timestamp);\r\n        status=vote_status.vote_end; //change status to vote_end\r\n    }\r\n\r\n    function show_vote(uint candidate_num) public view is_admnistrator returns(uint) // function to check the candidate's vote\r\n    {\r\n         require(status==vote_status.vote_end);\r\n         return votes_of_candidate[candidate_num];\r\n\r\n    }\r\n\r\n    function show_winner() public view is_admnistrator returns(uint)\r\n    {\r\n        require(status==vote_status.vote_end);\r\n        uint winner=votes_of_candidate[0];\r\n        uint winner_candidate=1;\r\n        for(uint i=2;i<=candidate_count;i++)\r\n        {\r\n            if(votes_of_candidate[i-1]>winner)\r\n            {\r\n                winner=votes_of_candidate[i-1];\r\n                winner_candidate=i-1;\r\n            }\r\n\r\n        }\r\n        return winner_candidate;\r\n    }\r\n}",
  "sourcePath": "C:\\Users\\Ritik Kumar\\Desktop\\evoting\\contracts\\vote.sol",
  "compiler": {
    "name": "solc",
    "version": "0.8.11+commit.d7f03943.Emscripten.clang"
  },
  "schemaVersion": "3.4.4",
  "updatedAt": "2022-11-02T05:18:17.504Z",
  "devdoc": {
    "kind": "dev",
    "methods": {},
    "version": 1
  },
  "userdoc": {
    "kind": "user",
    "methods": {},
    "version": 1
  }
}