{
  "contractName": "Vote",
  "abi": [
    {
      "inputs": [],
      "stateMutability": "nonpayable",
      "type": "constructor"
    },
    {
      "inputs": [],
      "name": "administrator",
      "outputs": [
        {
          "internalType": "address",
          "name": "",
          "type": "address"
        }
      ],
      "stateMutability": "view",
      "type": "function"
    },
    {
      "inputs": [],
      "name": "candidate_count",
      "outputs": [
        {
          "internalType": "uint256",
          "name": "",
          "type": "uint256"
        }
      ],
      "stateMutability": "view",
      "type": "function"
    },
    {
      "inputs": [
        {
          "internalType": "uint256",
          "name": "",
          "type": "uint256"
        }
      ],
      "name": "candidates",
      "outputs": [
        {
          "internalType": "string",
          "name": "party_name",
          "type": "string"
        },
        {
          "internalType": "string",
          "name": "party_flag",
          "type": "string"
        },
        {
          "internalType": "string",
          "name": "candidate_name",
          "type": "string"
        },
        {
          "internalType": "uint256",
          "name": "adhaar_number",
          "type": "uint256"
        }
      ],
      "stateMutability": "view",
      "type": "function"
    },
    {
      "inputs": [
        {
          "internalType": "address",
          "name": "",
          "type": "address"
        }
      ],
      "name": "poolAdmin",
      "outputs": [
        {
          "internalType": "uint256",
          "name": "",
          "type": "uint256"
        }
      ],
      "stateMutability": "view",
      "type": "function"
    },
    {
      "inputs": [],
      "name": "status",
      "outputs": [
        {
          "internalType": "enum Vote.vote_status",
          "name": "",
          "type": "uint8"
        }
      ],
      "stateMutability": "view",
      "type": "function"
    },
    {
      "inputs": [],
      "name": "vote_status_int",
      "outputs": [
        {
          "internalType": "uint256",
          "name": "",
          "type": "uint256"
        }
      ],
      "stateMutability": "view",
      "type": "function"
    },
    {
      "inputs": [
        {
          "internalType": "uint256",
          "name": "",
          "type": "uint256"
        }
      ],
      "name": "voter_status",
      "outputs": [
        {
          "internalType": "bool",
          "name": "",
          "type": "bool"
        }
      ],
      "stateMutability": "view",
      "type": "function"
    },
    {
      "inputs": [
        {
          "internalType": "address",
          "name": "",
          "type": "address"
        }
      ],
      "name": "voters",
      "outputs": [
        {
          "internalType": "uint256",
          "name": "adhaar_number",
          "type": "uint256"
        },
        {
          "internalType": "string",
          "name": "name",
          "type": "string"
        },
        {
          "internalType": "uint256",
          "name": "age",
          "type": "uint256"
        },
        {
          "internalType": "uint256",
          "name": "voted_to",
          "type": "uint256"
        },
        {
          "internalType": "bool",
          "name": "is_voted",
          "type": "bool"
        }
      ],
      "stateMutability": "view",
      "type": "function"
    },
    {
      "inputs": [
        {
          "internalType": "uint256",
          "name": "",
          "type": "uint256"
        }
      ],
      "name": "votes_of_candidate",
      "outputs": [
        {
          "internalType": "uint256",
          "name": "",
          "type": "uint256"
        }
      ],
      "stateMutability": "view",
      "type": "function"
    },
    {
      "inputs": [
        {
          "internalType": "uint256",
          "name": "adhaar",
          "type": "uint256"
        }
      ],
      "name": "is_present",
      "outputs": [
        {
          "internalType": "bool",
          "name": "",
          "type": "bool"
        }
      ],
      "stateMutability": "view",
      "type": "function"
    },
    {
      "inputs": [
        {
          "internalType": "address",
          "name": "v",
          "type": "address"
        },
        {
          "internalType": "string",
          "name": "voter_name",
          "type": "string"
        },
        {
          "internalType": "uint256",
          "name": "age",
          "type": "uint256"
        },
        {
          "internalType": "uint256",
          "name": "adhaar_number",
          "type": "uint256"
        }
      ],
      "name": "addVoter",
      "outputs": [],
      "stateMutability": "nonpayable",
      "type": "function"
    },
    {
      "inputs": [
        {
          "internalType": "string",
          "name": "pname",
          "type": "string"
        },
        {
          "internalType": "string",
          "name": "pflag",
          "type": "string"
        },
        {
          "internalType": "string",
          "name": "c_name",
          "type": "string"
        },
        {
          "internalType": "uint256",
          "name": "adhaar",
          "type": "uint256"
        }
      ],
      "name": "add_candidate",
      "outputs": [],
      "stateMutability": "nonpayable",
      "type": "function"
    },
    {
      "inputs": [
        {
          "internalType": "address",
          "name": "v",
          "type": "address"
        }
      ],
      "name": "add_pool_admin",
      "outputs": [],
      "stateMutability": "nonpayable",
      "type": "function"
    },
    {
      "inputs": [],
      "name": "start_voting",
      "outputs": [],
      "stateMutability": "nonpayable",
      "type": "function"
    },
    {
      "inputs": [
        {
          "internalType": "uint256",
          "name": "candidate_num",
          "type": "uint256"
        }
      ],
      "name": "make_vote",
      "outputs": [],
      "stateMutability": "nonpayable",
      "type": "function"
    },
    {
      "inputs": [
        {
          "internalType": "uint256",
          "name": "candidate_num",
          "type": "uint256"
        }
      ],
      "name": "de_vote",
      "outputs": [],
      "stateMutability": "nonpayable",
      "type": "function"
    },
    {
      "inputs": [],
      "name": "vote_end",
      "outputs": [],
      "stateMutability": "nonpayable",
      "type": "function"
    },
    {
      "inputs": [
        {
          "internalType": "uint256",
          "name": "candidate_num",
          "type": "uint256"
        }
      ],
      "name": "show_vote",
      "outputs": [
        {
          "internalType": "uint256",
          "name": "",
          "type": "uint256"
        }
      ],
      "stateMutability": "view",
      "type": "function"
    },
    {
      "inputs": [],
      "name": "show_winner",
      "outputs": [
        {
          "internalType": "uint256",
          "name": "",
          "type": "uint256"
        }
      ],
      "stateMutability": "view",
      "type": "function"
    }
  ],
  "bytecode": "0x608060405234801561001057600080fd5b50336000806101000a81548173ffffffffffffffffffffffffffffffffffffffff021916908373ffffffffffffffffffffffffffffffffffffffff1602179055506000600560006101000a81548160ff0219169083600281111561007757610076610091565b5b0217905550600060068190555060006004819055506100c0565b7f4e487b7100000000000000000000000000000000000000000000000000000000600052602160045260246000fd5b6122cc806100cf6000396000f3fe608060405234801561001057600080fd5b50600436106101215760003560e01c8063a3ec138d116100ad578063e17361ab11610071578063e17361ab146102e9578063e30c96ee14610305578063eb1b6ab814610335578063f3a8b27014610365578063f53d0a8e1461039557610121565b8063a3ec138d14610241578063a582d6e814610275578063b24aa34e14610293578063d49c54311461029d578063d66055d9146102cd57610121565b8063522e06be116100f4578063522e06be146101b157806353047c72146101cd5780635e8a2932146101e9578063852d49e6146101f357806398a5b1c41461021157610121565b8063200d2ed2146101265780633477ee2e146101445780633a5b9a78146101775780634b1c4c2914610193575b600080fd5b61012e6103b3565b60405161013b91906116e3565b60405180910390f35b61015e60048036038101906101599190611748565b6103c6565b60405161016e949392919061181d565b60405180910390f35b610191600480360381019061018c91906118d5565b61058e565b005b61019b6106e6565b6040516101a89190611902565b60405180910390f35b6101cb60048036038101906101c69190611a52565b6106ec565b005b6101e760048036038101906101e29190611748565b610866565b005b6101f1610a5b565b005b6101fb610b6c565b6040516102089190611902565b60405180910390f35b61022b600480360381019061022691906118d5565b610b72565b6040516102389190611902565b60405180910390f35b61025b600480360381019061025691906118d5565b610b8a565b60405161026c959493929190611b28565b60405180910390f35b61027d610c55565b60405161028a9190611902565b60405180910390f35b61029b610de9565b005b6102b760048036038101906102b29190611748565b610f1f565b6040516102c49190611b82565b60405180910390f35b6102e760048036038101906102e29190611748565b610f3f565b005b61030360048036038101906102fe9190611b9d565b611138565b005b61031f600480360381019061031a9190611748565b61131a565b60405161032c9190611902565b60405180910390f35b61034f600480360381019061034a9190611748565b61140f565b60405161035c9190611902565b60405180910390f35b61037f600480360381019061037a9190611748565b611433565b60405161038c9190611b82565b60405180910390f35b61039d6115a5565b6040516103aa9190611c2f565b60405180910390f35b600560009054906101000a900460ff1681565b60096020528060005260406000206000915090508060000180546103e990611c79565b80601f016020809104026020016040519081016040528092919081815260200182805461041590611c79565b80156104625780601f1061043757610100808354040283529160200191610462565b820191906000526020600020905b81548152906001019060200180831161044557829003601f168201915b50505050509080600101805461047790611c79565b80601f01602080910402602001604051908101604052809291908181526020018280546104a390611c79565b80156104f05780601f106104c5576101008083540402835291602001916104f0565b820191906000526020600020905b8154815290600101906020018083116104d357829003601f168201915b50505050509080600201805461050590611c79565b80601f016020809104026020016040519081016040528092919081815260200182805461053190611c79565b801561057e5780601f106105535761010080835404028352916020019161057e565b820191906000526020600020905b81548152906001019060200180831161056157829003601f168201915b5050505050908060030154905084565b3373ffffffffffffffffffffffffffffffffffffffff1660008054906101000a900473ffffffffffffffffffffffffffffffffffffffff1673ffffffffffffffffffffffffffffffffffffffff161461061c576040517f08c379a000000000000000000000000000000000000000000000000000000000815260040161061390611d1d565b60405180910390fd5b6000600b60008373ffffffffffffffffffffffffffffffffffffffff1673ffffffffffffffffffffffffffffffffffffffff168152602001908152602001600020541461069e576040517f08c379a000000000000000000000000000000000000000000000000000000000815260040161069590611daf565b60405180910390fd5b6001600b60008373ffffffffffffffffffffffffffffffffffffffff1673ffffffffffffffffffffffffffffffffffffffff1681526020019081526020016000208190555050565b60045481565b3373ffffffffffffffffffffffffffffffffffffffff1660008054906101000a900473ffffffffffffffffffffffffffffffffffffffff1673ffffffffffffffffffffffffffffffffffffffff161461077a576040517f08c379a000000000000000000000000000000000000000000000000000000000815260040161077190611d1d565b60405180910390fd5b8360096000600454815260200190815260200160002060000190805190602001906107a69291906115c9565b508260096000600454815260200190815260200160002060010190805190602001906107d39291906115c9565b508160096000600454815260200190815260200160002060020190805190602001906108009291906115c9565b508060096000600454815260200190815260200160002060030181905550600a600090806001815401808255809150506001900390600052602060002001600090919091909150556004600081548092919061085b90611dfe565b919050555050505050565b60011515600760003373ffffffffffffffffffffffffffffffffffffffff1673ffffffffffffffffffffffffffffffffffffffff16815260200190815260200160002060040160009054906101000a900460ff161515146108fc576040517f08c379a00000000000000000000000000000000000000000000000000000000081526004016108f390611eb9565b60405180910390fd5b600160028111156109105761090f61166c565b5b600560009054906101000a900460ff1660028111156109325761093161166c565b5b14610972576040517f08c379a000000000000000000000000000000000000000000000000000000000815260040161096990611f4b565b60405180910390fd5b600354421061098057600080fd5b6000600760003373ffffffffffffffffffffffffffffffffffffffff1673ffffffffffffffffffffffffffffffffffffffff16815260200190815260200160002060040160006101000a81548160ff0219169083151502179055506103e8600760003373ffffffffffffffffffffffffffffffffffffffff1673ffffffffffffffffffffffffffffffffffffffff16815260200190815260200160002060030181905550600a8181548110610a3857610a37611f6b565b5b906000526020600020016000815480929190610a5390611f9a565b919050555050565b3373ffffffffffffffffffffffffffffffffffffffff1660008054906101000a900473ffffffffffffffffffffffffffffffffffffffff1673ffffffffffffffffffffffffffffffffffffffff1614610ae9576040517f08c379a0000000000000000000000000000000000000000000000000000000008152600401610ae090611d1d565b60405180910390fd5b60016002811115610afd57610afc61166c565b5b600560009054906101000a900460ff166002811115610b1f57610b1e61166c565b5b148015610b2e57504260035411155b610b3757600080fd5b6002600560006101000a81548160ff02191690836002811115610b5d57610b5c61166c565b5b02179055506002600681905550565b60065481565b600b6020528060005260406000206000915090505481565b6007602052806000526040600020600091509050806000015490806001018054610bb390611c79565b80601f0160208091040260200160405190810160405280929190818152602001828054610bdf90611c79565b8015610c2c5780601f10610c0157610100808354040283529160200191610c2c565b820191906000526020600020905b815481529060010190602001808311610c0f57829003601f168201915b5050505050908060020154908060030154908060040160009054906101000a900460ff16905085565b60003373ffffffffffffffffffffffffffffffffffffffff1660008054906101000a900473ffffffffffffffffffffffffffffffffffffffff1673ffffffffffffffffffffffffffffffffffffffff1614610ce5576040517f08c379a0000000000000000000000000000000000000000000000000000000008152600401610cdc90611d1d565b60405180910390fd5b600280811115610cf857610cf761166c565b5b600560009054906101000a900460ff166002811115610d1a57610d1961166c565b5b14610d2457600080fd5b6000600a600081548110610d3b57610d3a611f6b565b5b906000526020600020015490506000600190506000600290505b6004548111610de05782600a600183610d6e9190611fc4565b81548110610d7f57610d7e611f6b565b5b90600052602060002001541115610dcd57600a600182610d9f9190611fc4565b81548110610db057610daf611f6b565b5b90600052602060002001549250600181610dca9190611fc4565b91505b8080610dd890611dfe565b915050610d55565b50809250505090565b3373ffffffffffffffffffffffffffffffffffffffff1660008054906101000a900473ffffffffffffffffffffffffffffffffffffffff1673ffffffffffffffffffffffffffffffffffffffff1614610e77576040517f08c379a0000000000000000000000000000000000000000000000000000000008152600401610e6e90611d1d565b60405180910390fd5b60006002811115610e8b57610e8a61166c565b5b600560009054906101000a900460ff166002811115610ead57610eac61166c565b5b14610eb757600080fd5b426001819055506000600154610ecd9190611ff8565b60028190555062093a80600254610ee49190611ff8565b6003819055506001600560006101000a81548160ff02191690836002811115610f1057610f0f61166c565b5b02179055506001600681905550565b60086020528060005260406000206000915054906101000a900460ff1681565b600033905060001515600760008373ffffffffffffffffffffffffffffffffffffffff1673ffffffffffffffffffffffffffffffffffffffff16815260200190815260200160002060040160009054906101000a900460ff16151514610fda576040517f08c379a0000000000000000000000000000000000000000000000000000000008152600401610fd1906120c0565b60405180910390fd5b60016002811115610fee57610fed61166c565b5b600560009054906101000a900460ff1660028111156110105761100f61166c565b5b14611050576040517f08c379a000000000000000000000000000000000000000000000000000000000815260040161104790611f4b565b60405180910390fd5b600354421061105e57600080fd5b6001600760003373ffffffffffffffffffffffffffffffffffffffff1673ffffffffffffffffffffffffffffffffffffffff16815260200190815260200160002060040160006101000a81548160ff02191690831515021790555081600760003373ffffffffffffffffffffffffffffffffffffffff1673ffffffffffffffffffffffffffffffffffffffff16815260200190815260200160002060030181905550600a828154811061111457611113611f6b565b5b90600052602060002001600081548092919061112f90611dfe565b91905055505050565b6001600b60003373ffffffffffffffffffffffffffffffffffffffff1673ffffffffffffffffffffffffffffffffffffffff16815260200190815260200160002054146111ba576040517f08c379a00000000000000000000000000000000000000000000000000000000081526004016111b190612152565b60405180910390fd5b82600760008673ffffffffffffffffffffffffffffffffffffffff1673ffffffffffffffffffffffffffffffffffffffff16815260200190815260200160002060010190805190602001906112109291906115c9565b5081600760008673ffffffffffffffffffffffffffffffffffffffff1673ffffffffffffffffffffffffffffffffffffffff1681526020019081526020016000206002018190555080600760008673ffffffffffffffffffffffffffffffffffffffff1673ffffffffffffffffffffffffffffffffffffffff168152602001908152602001600020600001819055506103e8600760008673ffffffffffffffffffffffffffffffffffffffff1673ffffffffffffffffffffffffffffffffffffffff1681526020019081526020016000206003018190555060016008600083815260200190815260200160002060006101000a81548160ff02191690831515021790555050505050565b60003373ffffffffffffffffffffffffffffffffffffffff1660008054906101000a900473ffffffffffffffffffffffffffffffffffffffff1673ffffffffffffffffffffffffffffffffffffffff16146113aa576040517f08c379a00000000000000000000000000000000000000000000000000000000081526004016113a190611d1d565b60405180910390fd5b6002808111156113bd576113bc61166c565b5b600560009054906101000a900460ff1660028111156113df576113de61166c565b5b146113e957600080fd5b600a82815481106113fd576113fc611f6b565b5b90600052602060002001549050919050565b600a818154811061141f57600080fd5b906000526020600020016000915090505481565b60003373ffffffffffffffffffffffffffffffffffffffff1660008054906101000a900473ffffffffffffffffffffffffffffffffffffffff1673ffffffffffffffffffffffffffffffffffffffff16146114c3576040517f08c379a00000000000000000000000000000000000000000000000000000000081526004016114ba90611d1d565b60405180910390fd5b600060028111156114d7576114d661166c565b5b600560009054906101000a900460ff1660028111156114f9576114f861166c565b5b14611539576040517f08c379a00000000000000000000000000000000000000000000000000000000081526004016115309061220a565b60405180910390fd5b600254421061157d576040517f08c379a000000000000000000000000000000000000000000000000000000000815260040161157490612276565b60405180910390fd5b6008600083815260200190815260200160002060009054906101000a900460ff169050919050565b60008054906101000a900473ffffffffffffffffffffffffffffffffffffffff1681565b8280546115d590611c79565b90600052602060002090601f0160209004810192826115f7576000855561163e565b82601f1061161057805160ff191683800117855561163e565b8280016001018555821561163e579182015b8281111561163d578251825591602001919060010190611622565b5b50905061164b919061164f565b5090565b5b80821115611668576000816000905550600101611650565b5090565b7f4e487b7100000000000000000000000000000000000000000000000000000000600052602160045260246000fd5b600381106116ac576116ab61166c565b5b50565b60008190506116bd8261169b565b919050565b60006116cd826116af565b9050919050565b6116dd816116c2565b82525050565b60006020820190506116f860008301846116d4565b92915050565b6000604051905090565b600080fd5b600080fd5b6000819050919050565b61172581611712565b811461173057600080fd5b50565b6000813590506117428161171c565b92915050565b60006020828403121561175e5761175d611708565b5b600061176c84828501611733565b91505092915050565b600081519050919050565b600082825260208201905092915050565b60005b838110156117af578082015181840152602081019050611794565b838111156117be576000848401525b50505050565b6000601f19601f8301169050919050565b60006117e082611775565b6117ea8185611780565b93506117fa818560208601611791565b611803816117c4565b840191505092915050565b61181781611712565b82525050565b6000608082019050818103600083015261183781876117d5565b9050818103602083015261184b81866117d5565b9050818103604083015261185f81856117d5565b905061186e606083018461180e565b95945050505050565b600073ffffffffffffffffffffffffffffffffffffffff82169050919050565b60006118a282611877565b9050919050565b6118b281611897565b81146118bd57600080fd5b50565b6000813590506118cf816118a9565b92915050565b6000602082840312156118eb576118ea611708565b5b60006118f9848285016118c0565b91505092915050565b6000602082019050611917600083018461180e565b92915050565b600080fd5b600080fd5b7f4e487b7100000000000000000000000000000000000000000000000000000000600052604160045260246000fd5b61195f826117c4565b810181811067ffffffffffffffff8211171561197e5761197d611927565b5b80604052505050565b60006119916116fe565b905061199d8282611956565b919050565b600067ffffffffffffffff8211156119bd576119bc611927565b5b6119c6826117c4565b9050602081019050919050565b82818337600083830152505050565b60006119f56119f0846119a2565b611987565b905082815260208101848484011115611a1157611a10611922565b5b611a1c8482856119d3565b509392505050565b600082601f830112611a3957611a3861191d565b5b8135611a498482602086016119e2565b91505092915050565b60008060008060808587031215611a6c57611a6b611708565b5b600085013567ffffffffffffffff811115611a8a57611a8961170d565b5b611a9687828801611a24565b945050602085013567ffffffffffffffff811115611ab757611ab661170d565b5b611ac387828801611a24565b935050604085013567ffffffffffffffff811115611ae457611ae361170d565b5b611af087828801611a24565b9250506060611b0187828801611733565b91505092959194509250565b60008115159050919050565b611b2281611b0d565b82525050565b600060a082019050611b3d600083018861180e565b8181036020830152611b4f81876117d5565b9050611b5e604083018661180e565b611b6b606083018561180e565b611b786080830184611b19565b9695505050505050565b6000602082019050611b976000830184611b19565b92915050565b60008060008060808587031215611bb757611bb6611708565b5b6000611bc5878288016118c0565b945050602085013567ffffffffffffffff811115611be657611be561170d565b5b611bf287828801611a24565b9350506040611c0387828801611733565b9250506060611c1487828801611733565b91505092959194509250565b611c2981611897565b82525050565b6000602082019050611c446000830184611c20565b92915050565b7f4e487b7100000000000000000000000000000000000000000000000000000000600052602260045260246000fd5b60006002820490506001821680611c9157607f821691505b60208210811415611ca557611ca4611c4a565b5b50919050565b7f5468697320616374696f6e20706572666f726d206279206f6e792061646d696e60008201527f6973747261746f72000000000000000000000000000000000000000000000000602082015250565b6000611d07602883611780565b9150611d1282611cab565b604082019050919050565b60006020820190508181036000830152611d3681611cfa565b9050919050565b7f506f6f6c2041646d696e20616c7265616479206578697374732077697468206760008201527f6976656e20616464726573730000000000000000000000000000000000000000602082015250565b6000611d99602c83611780565b9150611da482611d3d565b604082019050919050565b60006020820190508181036000830152611dc881611d8c565b9050919050565b7f4e487b7100000000000000000000000000000000000000000000000000000000600052601160045260246000fd5b6000611e0982611712565b91507fffffffffffffffffffffffffffffffffffffffffffffffffffffffffffffffff821415611e3c57611e3b611dcf565b5b600182019050919050565b7f74686973206973206f6e6c7920666f722074686f732077686f20616c7265616460008201527f7920766f74656400000000000000000000000000000000000000000000000000602082015250565b6000611ea3602783611780565b9150611eae82611e47565b604082019050919050565b60006020820190508181036000830152611ed281611e96565b9050919050565b7f68692073746f7021212074686572652069732074696d6520746f20737461727460008201527f206120766f746521210000000000000000000000000000000000000000000000602082015250565b6000611f35602983611780565b9150611f4082611ed9565b604082019050919050565b60006020820190508181036000830152611f6481611f28565b9050919050565b7f4e487b7100000000000000000000000000000000000000000000000000000000600052603260045260246000fd5b6000611fa582611712565b91506000821415611fb957611fb8611dcf565b5b600182039050919050565b6000611fcf82611712565b9150611fda83611712565b925082821015611fed57611fec611dcf565b5b828203905092915050565b600061200382611712565b915061200e83611712565b9250827fffffffffffffffffffffffffffffffffffffffffffffffffffffffffffffffff0382111561204357612042611dcf565b5b828201905092915050565b7f686920796f752061726520616c7265616479206769766520766f746520746f2060008201527f7468697320706172747900000000000000000000000000000000000000000000602082015250565b60006120aa602a83611780565b91506120b58261204e565b604082019050919050565b600060208201905081810360008301526120d98161209d565b9050919050565b7f5468697320616374696f6e20706572666f726d206279206f6e6c7920706f6f6c60008201527f2061646d696e6973747261746f72000000000000000000000000000000000000602082015250565b600061213c602e83611780565b9150612147826120e0565b604082019050919050565b6000602082019050818103600083015261216b8161212f565b9050919050565b7f62726f2069207468696e6b20766f74696e672069732072756e6e696e672c207960008201527f6568206b616d20746f207374617274207365207065686c65206b726e6120746860208201527f61206e6120626861750000000000000000000000000000000000000000000000604082015250565b60006121f4604983611780565b91506121ff82612172565b606082019050919050565b60006020820190508181036000830152612223816121e7565b9050919050565b7f6f6820686f20796f7520617265206c6174652121210000000000000000000000600082015250565b6000612260601583611780565b915061226b8261222a565b602082019050919050565b6000602082019050818103600083015261228f81612253565b905091905056fea2646970667358221220ba39fa635f32801cf39d49bd5e88d887b71f5809c88b252a9b4e41cbb7d20d9a64736f6c634300080b0033",
  "immutableReferences": {},
  "source": "//SPDX-License-Identifier: GPL-3.0\r\n//\r\npragma solidity >=0.4.22 <0.9.0;\r\ncontract Vote{\r\n    address public administrator;\r\n    uint private after_deploy;                       // in bw after deploy and start_timming  administrator can update voters as well as candidates information\r\n    uint private start_timming;                      //repesent timmimg when voting is started\r\n    uint private end_timming;                        //repesent when voting is ended\r\n    uint public candidate_count;\r\n    enum vote_status{before_start,vote_started,vote_end} //To check voting status\r\n    vote_status public status;\r\n    uint public vote_status_int;\r\n    struct  voter{\r\n        uint adhaar_number;\r\n        string name;\r\n        uint age;\r\n        uint voted_to;\r\n        bool is_voted;\r\n    }\r\n    mapping(address=>voter) public voters;//baad me dekhenge ki private krna hai ja nahi....and haan validate ka bhi sochna hai bhai...\r\n    mapping(uint=>bool) public voter_status;\r\n    struct candidate{\r\n        string party_name;\r\n        string party_flag;\r\n        string candidate_name;\r\n        uint adhaar_number;\r\n    }\r\n    mapping(uint=>candidate)public candidates;//where first int takes unique candidate number\r\n    uint[] public votes_of_candidate;// array to stor total votes of each candidate\r\n    mapping(address=>uint) public poolAdmin;\r\n    //Constructor and modifier define here\r\n    constructor(){\r\n        administrator=msg.sender;\r\n        status=vote_status.before_start;\r\n         //means we have 12 hours to update data to our database of voters and candidate\r\n         vote_status_int=0;\r\n         candidate_count=0;\r\n        }\r\n\r\n    modifier is_admnistrator{\r\n        require(administrator==msg.sender,\"This action perform by ony administrator\");\r\n        _;\r\n    }\r\n    modifier is_pool_admnistrator{\r\n        require(poolAdmin[msg.sender]==1,\"This action perform by only pool administrator\");\r\n        _;\r\n    }\r\n    modifier before_start{\r\n        require(status==vote_status.before_start,\"bro i think voting is running, yeh kam to start se pehle krna tha na bhau\");\r\n        require( block.timestamp<start_timming,\"oh ho you are late!!!\");\r\n        _;\r\n    }\r\n    modifier eligible_voter{\r\n         address t=msg.sender;\r\n         require(voters[t].is_voted ==false,\"hi you are already give vote to this party\");\r\n        _;\r\n    }\r\n\r\n    //All function define here\r\n    function is_present(uint adhaar)  is_admnistrator before_start  view  public returns(bool){\r\n        return voter_status[adhaar];\r\n    }\r\n    function addVoter(address v,string memory voter_name,uint age,uint adhaar_number ) is_pool_admnistrator   public\r\n    {\r\n    // require(voter_status[adhaar_number]==false,\"voter already present in our server\");\r\n     voters[v].name=voter_name;\r\n     voters[v].age=age;\r\n     voters[v].adhaar_number=adhaar_number;\r\n     voters[v].voted_to=1000;\r\n     voter_status[adhaar_number]=true;\r\n\r\n    }\r\n    function add_candidate(string memory pname,string memory pflag,string memory c_name,uint adhaar) is_admnistrator  public\r\n    {\r\n          candidates[candidate_count].party_name=pname;\r\n          candidates[candidate_count].party_flag=pflag;\r\n          candidates[candidate_count].candidate_name=c_name;\r\n          candidates[candidate_count].adhaar_number=adhaar;\r\n          votes_of_candidate.push(0);\r\n          candidate_count++;\r\n    }\r\n     function add_pool_admin(address v) is_admnistrator  public\r\n    {\r\n          require(poolAdmin[v]==0,\"Pool Admin already exists with given address\");\r\n          poolAdmin[v]=1;\r\n    }\r\n\r\n    function start_voting() public is_admnistrator  //vote started\r\n    {\r\n        require(status==vote_status.before_start);\r\n        after_deploy=block.timestamp;\r\n        start_timming=after_deploy+0;\r\n        end_timming=start_timming+604800;//means we have total 7 days after voting started to voting end{voting duration}\r\n        status=vote_status.vote_started;\r\n        vote_status_int=1;\r\n\r\n    }\r\n\r\n    function make_vote (uint candidate_num)public eligible_voter\r\n    {\r\n        require(status==vote_status.vote_started,\"hi stop!! there is time to start a vote!!\");\r\n        require( block.timestamp<end_timming);\r\n        voters[msg.sender].is_voted=true;\r\n        voters[msg.sender].voted_to=candidate_num;\r\n        votes_of_candidate[candidate_num]++;\r\n    }\r\n\r\n    function de_vote(uint candidate_num) public\r\n    {\r\n         require(voters[msg.sender].is_voted==true,\"this is only for thos who already voted\");\r\n         require(status==vote_status.vote_started,\"hi stop!! there is time to start a vote!!\");\r\n         require(block.timestamp<end_timming);\r\n         voters[msg.sender].is_voted=false;\r\n         voters[msg.sender].voted_to=1000;\r\n         votes_of_candidate[candidate_num]--;\r\n    }\r\n\r\n    function vote_end() public is_admnistrator  //vote ended\r\n    {\r\n        require(status==vote_status.vote_started && end_timming<=block.timestamp);\r\n        status=vote_status.vote_end; //change status to vote_end\r\n        vote_status_int=2;\r\n    }\r\n\r\n    function show_vote(uint candidate_num) public view is_admnistrator returns(uint) // function to check the candidate's vote\r\n    {\r\n         require(status==vote_status.vote_end);\r\n         return votes_of_candidate[candidate_num];\r\n\r\n    }\r\n\r\n    function show_winner() public view is_admnistrator returns(uint)\r\n    {\r\n        require(status==vote_status.vote_end);\r\n        uint winner=votes_of_candidate[0];\r\n        uint winner_candidate=1;\r\n        for(uint i=2;i<=candidate_count;i++)\r\n        {\r\n            if(votes_of_candidate[i-1]>winner)\r\n            {\r\n                winner=votes_of_candidate[i-1];\r\n                winner_candidate=i-1;\r\n            }\r\n\r\n        }\r\n        return winner_candidate;\r\n    }\r\n}",
  "sourcePath": "C:\\Users\\Ritik Kumar\\Desktop\\evoting\\contracts\\vote.sol",
  "compiler": {
    "name": "solc",
    "version": "0.8.11+commit.d7f03943.Emscripten.clang"
  },
  "schemaVersion": "3.4.4",
  "updatedAt": "2022-11-16T13:23:07.692Z",
  "devdoc": {
    "kind": "dev",
    "methods": {},
    "version": 1
  },
  "userdoc": {
    "kind": "user",
    "methods": {},
    "version": 1
  }
}